S015000074726970706C696E675F6176722E737265638E
S11300000EC028C05FC053C025C024C023C022C076
S113001021C062C01FC01EC01DC01CC01BC0112453
S11300201FBECFE5D2E0DEBFCDBF10E0A0E6B0E05A
S1130030EAECF3E002C005900D92AA37B107D9F7B4
S113004020E0AAE7B0E001C01D92AA37B207E1F7A9
S11300500FD0B9C1D5CFBC9AC49AC498BB9AC39ADD
S1130060C398BA98C29AB998C19AB898C09A089590
S113007014BE0FB6F894A89581B5886181BD11BCF2
S11300800FBEE9DFF4D009D1A8959EE088E10FB650
S1130090F894A89581BD0FBE91BDDBD06CD08FE0E4
S11300A097E20197F1F700C00000A895F6CF1F92E0
S11300B00F920FB60F9211241FBC0F900FBE0F901A
S11300C01F9018951F920F920FB60F9211240F9044
S11300D00FBE0F901F9018951F920F920FB60F929C
S11300E011240F900FBE0F901F901895FC0194815E
S11300F0913009F03FC080818330E0F52181328165
S11301002F5F3F4F3283218343814130A9F4809193
S11301106000909161008217930760F5128211824A
S1130120138228B381E090E0008402C0880F991FF5
S11301300A94E2F7822B1DC041111CC0409160005B
S11301405091610042175307A8F4128211829383DD
S11301508F5F8083833011F41482108228B381E08E
S113016090E0008402C0880F991F0A94E2F78095FA
S1130170822388BB08958EE690E0B8DF84E690E0A1
S1130180B5CFFC0186B390E0018402C095958795B4
S11301900A94E2F780FD08C081E087838581968117
S11301A001969683858301C017828481811121C0C1
S11301B0878181111EC0858196814091780050917C
S11301C0790020916200309163004817590760F468
S11301D08217930748F481E084838383168215820F
S11301E010821282118208952817390710F416829A
S11301F015820895CF93B29911C0C0916800C1309F
S113020069F481D0C398C4982FEF84E39CE0215013
S113021080409040E1F700C0000018C086B3C82FAA
S1130220C27081FD12C080917200813079F46BD06C
S1130230C498C3982FEF84E39CE021508040904001
S1130240E1F700C00000C1E001C0C0E08C2FCF91F5
S11302500895D0DF811106C08EE690E092DF84E637
S113026090E08FCF0895BC0180E090E08BC080E0E7
S113027090E083D0909361008093600065E070E02B
S113028057D064E670E065D0CB0160E570E050D0F3
S1130290909363008093620008958AE0B09B02C04B
S11302A080E008952FE738E391E0215030409040FA
S11302B0E1F700C00000815089F7B099F1CF26B36F
S11302C0247060E080E090E030E046B3447050E099
S11302D02417350741F00196EFE0F7E23197F1F783
S11302E000C0000004C0613011F060E0EECF46B3FE
S11302F0447050E02417350711F061E0E6CFB3DF16
S1130300B6DF81E00895EEE6F0E0128211821382F6
S113031014821082178216821582E4E6F0E01282BB
S11303201182138214821082178216821582089514
S11303300024552704C0080E591F880F991F0097E1
S113034029F076956795B8F37105B9F7802D952F47
S11303500895AA1BBB1B51E107C0AA1FBB1FA61708
S1130360B70710F0A61BB70B881F991F5A95A9F75A
S113037080959095BC01CD010895A8E1B0E042E0DC
S113038050E005C012D0272F11C0DC01CB01FC01C5
S1130390E199FECF06C0FFBBEEBBE09A31960DB2E9
S11303A00D9241505040B8F70895262FE199FECFA1
S11303B01CBA9FBB8EBB2DBB0FB6F894E29AE19A90
S10D03C00FBE01960895F894FFCFD4
S11303CA50003C000000000000000000030100008F
S10D03DA00000000000004021000FF
S9030000FC
