S015000074726970706C696E675F6176722E737265638E
S11300000EC028C05DC051C025C024C023C022C07A
S113001021C060C01FC01EC01DC01CC01BC0112455
S11300201FBECFE5D2E0DEBFCDBF10E0A0E6B0E05A
S1130030E4E9F2E002C005900D92AC37B107D9F7BC
S113004020E0ACE7B0E001C01D92AC37B207E1F7A5
S11300500FD01EC1D5CFBC9AC49AC498BB9AC39A78
S1130060C398BA98C29AB998C19AB898C09A089590
S113007014BE0FB6F894A89581B5886181BD11BCF2
S11300800FBEE9DFA8959EE088E10FB6F894A89525
S113009081BD0FBE91BDDDD06ED08FE097E2019798
S11300A0F1F700C00000A895F6CF1F920F920FB68B
S11300B00F9211241FBC0F900FBE0F901F90189524
S11300C01F920F920FB60F9211240F900FBE0F9034
S11300D01F9018951F920F920FB60F9211240F9034
S11300E00FBE0F901F901895FC014481413009F018
S11300F041C08081909160008917E0F521813281AF
S11301002F5F3F4F3283218353815130A9F4809173
S11301106100909162008217930760F51282118248
S1130120138228B381E090E0008402C0880F991FF5
S11301300A94E2F7822B1DC051111CC0609161002A
S11301407091620062177307A8F4128211824383CC
S11301508F5F8083981302C01482108228B381E0D9
S113016090E0008402C0880F991F0A94E2F78095FA
S1130170822388BB08958FE690E0B6DF85E690E0A1
S1130180B3CFFC0186B390E0018402C095958795B6
S11301900A94E2F780FD08C081E087838581968117
S11301A001969683858301C017828481811121C0C1
S11301B0878181111EC0858196814091790050917B
S11301C07A0020916300309164004817590760F465
S11301D08217930748F481E084838383168215820F
S11301E010821282118208952817390710F416829A
S11301F015820895CF93B29911C0C0916900C1309E
S113020069F431D0C398C4982FEF84E39CE0215063
S113021080409040E1F700C0000018C086B3C82FAA
S1130220C27081FD12C080917300813079F41BD0BB
S1130230C498C3982FEF84E39CE021508040904001
S1130240E1F700C00000C1E001C0C0E08C2FCF91F5
S11302500895D0DF811106C08FE690E092DF85E635
S113026090E08FCF0895EFE6F0E0128211821382BE
S113027014821082178216821582E5E6F0E012825B
S113028011821382148210821782168215820895B5
S1070290F894FFCF0C
S11302940350003C000000000000000000030100C3
S10F02A400000000000000040210000034
S9030000FC
