S015000074726970706C696E675F6176722E737265638E
S11300000EC020C05CC050C01DC01CC01BC01AC0A4
S113001019C05FC017C016C015C014C013C0112486
S11300201FBECFE5D2E0DEBFCDBF10E0A0E6B0E05A
S1130030E4EFF2E002C005900D92A837B107D9F7BA
S11300400FD056C1DDCFBB9AC39AC398BC9AC49A49
S1130050C498BA98C29AB998C19AB898C09A08959F
S113006014BE0FB6F894A89581B5886181BD11BC02
S11300700FBEE9DF8091600090916100E1D00AD168
S1130080E3D0A8959EE088E10FB6F894A89581BDC9
S11300900FBE91BDCBD06CD08FE097E20197F1F702
S11300A000C00000A895F6CF1F920F920FB60F92D2
S11300B011241FBC0F900FBE0F901F9018951F9214
S11300C00F920FB60F9211240F900FBE0F901F9036
S11300D018951F920F920FB60F9211240F900FBE16
S11300E00F901F901895FC019481913009F03FC046
S11300F080818330E0F5218132812F5F3F4F32834D
S1130100218343814130A9F4809160009091610082
S11301108217930760F512821182138228B381E05B
S113012090E0008402C0880F991F0A94E2F7822BA2
S11301301DC041111CC040916000509161004217E4
S11301405307A8F41282118293838F5F80838330D4
S113015011F41482108228B381E090E0008402C07C
S1130160880F991F0A94E2F78095822388BB08952B
S11301708EE690E0B8DF84E690E0B5CFFC0186B36C
S113018090E0018402C0959587950A94E2F780FD7A
S113019008C081E087838581968101969683858353
S11301A001C017828481811116C08781811113C017
S11301B085819681009779F02091620030916300E7
S11301C08217930740F481E0848383831682158227
S11301D01082128211820895B29910C08091680031
S11301E0813061F41092660010926500809367007C
S11301F01092680010926400C498089596B3892FF1
S1130200827091FD11C090917200913071F410923E
S1130210700010926F00909371001092720010920F
S11302206E00C39881E0089580E00895D5DF8111C0
S113023006C08EE690E0A2DF84E690E09FCF0895AA
S1130240BC0180E090E033C0B09923C026B3247091
S113025060E080E090E030E046B3447050E0241762
S1130260350741F00196EFE0F7E23197F1F700C06E
S1130270000004C0613011F060E0EECF46B344707A
S113028050E02417350711F061E0E6CFD9DFA895D7
S1130290FECF089580E090E005D0909361008093B4
S11302A060000895A8E1B0E042E050E005C012D03B
S11302B0272F11C0DC01CB01FC01E199FECF06C060
S11302C0FFBBEEBBE09A31960DB20D924150504007
S11302D0B8F70895262FE199FECF1CBA9FBB8EBBB9
S11302E02DBB0FB6F894E29AE19A0FBE01960895D9
S10702F0F894FFCFAC
S11302F46400280000000000000000000401000065
S10B03040000000000000302E8
S9030000FC
