:100000000EC028C05DC051C025C024C023C022C07E
:1000100021C060C01FC01EC01DC01CC01BC0112459
:100020001FBECFE5D2E0DEBFCDBF10E0A0E6B0E05E
:10003000E0E9F2E002C005900D92AA37B107D9F7C6
:1000400020E0AAE7B0E001C01D92AA37B207E1F7AD
:100050000FD01CC1D5CFBC9AC49AC498BB9AC39A7E
:10006000C398BA98C29AB998C19AB898C09A089594
:1000700014BE0FB6F894A89581B5886181BD11BCF6
:100080000FBEE9DFA8959EE088E10FB6F894A89529
:1000900081BD0FBE91BDDBD06CD08FE097E20197A0
:1000A000F1F700C00000A895F6CF1F920F920FB68F
:1000B0000F9211241FBC0F900FBE0F901F90189528
:1000C0001F920F920FB60F9211240F900FBE0F9038
:1000D0001F9018951F920F920FB60F9211240F9038
:1000E0000FBE0F901F901895FC019481913009F07C
:1000F0003FC080818330E0F5218132812F5F3F4F07
:100100003283218343814130A9F480916000909132
:1001100061008217930760F512821182138228B35F
:1001200081E090E0008402C0880F991F0A94E2F7F2
:10013000822B1DC041111CC0409160005091610094
:1001400042175307A8F41282118293838F5F808332
:10015000833011F41482108228B381E090E000848F
:1001600002C0880F991F0A94E2F78095822388BB0A
:1001700008958EE690E0B8DF84E690E0B5CFFC010C
:1001800086B390E0018402C0959587950A94E2F7C2
:1001900080FD08C081E087838581968101969683E2
:1001A000858301C017828481811121C087818111DB
:1001B0001EC08581968140917800509179002091F0
:1001C0006200309163004817590760F48217930763
:1001D00048F481E084838383168215821082128220
:1001E000118208952817390710F416821582089590
:1001F000CF93B29911C0C0916800C13069F431D079
:10020000C398C4982FEF84E39CE021508040904035
:10021000E1F700C0000018C086B3C82FC27081FD8E
:1002200012C080917200813079F41BD0C498C398B9
:100230002FEF84E39CE0215080409040E1F700C024
:100240000000C1E001C0C0E08C2FCF910895D0DF45
:10025000811106C08EE690E092DF84E690E08FCFB9
:100260000895EEE6F0E01282118213821482108269
:10027000178216821582E4E6F0E012821182138260
:10028000148210821782168215820895F894FFCF87
:1002900050003C00000000000000000003010000CE
:0A02A000000000000000040210003E
:00000001FF
