:100000000EC020C060C04AC01DC01CC01BC01AC0AA
:1000100019C04FC017C016C015C014C013C011249A
:100020001FBECFE5D2E0DEBFCDBF10E0A0E6B0E05E
:10003000E4EBF2E002C005900D92A837B107D9F7C2
:100040000FD036C1DDCFBA9AC29AC298B99AC19A76
:10005000C198BC98C49ABB98C39AB898C09A08959E
:1000600014BE0FB6F894A89581B5886181BD11BC06
:100070000FBEE9DFE7D0A8959EE088E10FB6F894BF
:10008000A89581BD0FBE91BDCED06DD08FE097E217
:100090000197F1F700C00000A895F6CF1F920F92CC
:1000A0000FB60F9211241FBC0F900FBE0F901F9020
:1000B00018951F920F920FB60F9211240F900FBE3A
:1000C0000F901F9018951F920F920FB60F92112448
:1000D0000F900FBE0F901F901895FC018481813006
:1000E00009F040C020812330E8F58181928101969A
:1000F0009283818333813130B1F42091600030915B
:1001000061002817390770F512821182138228B313
:1001100081E090E0008402C0880F991F0A94E2F702
:10012000822B88BB089531111DC040916000509111
:10013000610048175907B0F41282118281E083836D
:100140002F5F2083233011F41482108228B381E0C2
:1001500090E0008402C0880F991F0A94E2F780950E
:10016000822388BB08958EE690E0B7DF84E690E0B6
:10017000B4DF0895FC0126B330E0018402C0359558
:1001800027950A94E2F720FD08C081E087838581E6
:1001900096810196968385830895178284818823AA
:1001A000B9F008952091620030916300821793079F
:1001B00048F481E084838383168215821082128240
:1001C000118208952817390738F416821582089588
:1001D00085819681009731F70895B4990EC080917A
:1001E0006800813051F4E4E6F0E01282118291E07F
:1001F000938314821082C198089596B3892F8870D2
:1002000093FD0FC090917200913061F4EEE6F0E042
:100210001282118281E0838314821082C298892F16
:10022000089580E00895D9DF811106C08EE690E040
:10023000A1DF84E690E09EDF0895BC0180E090E0BD
:1002400026D00895B09922C046B3407160E080E0A6
:1002500090E050E071E001C0672F26B3207130E0DC
:100260004217530741F00196EFE0F7E23197F1F7BB
:1002700000C0000002C0613081F726B3207130E079
:100280004217530749F7D9DFA895FECF089502D04A
:10029000272F01C0262FE199FECF1CBA9FBB8EBB32
:1002A0002DBB0FB6F894E29AE19A0FBE019608951D
:0402B000F894FFCFF0
:1002B4006400500000000000000000000103000082
:0802C40000000000000002042C
:00000001FF
