S015000074726970706C696E675F6176722E737265638E
S11300000EC020C06FC059C01DC01CC01BC01AC088
S113001019C05EC017C016C015C014C013C0112487
S11300201FBECFE5D2E0DEBFCDBF10E0A0E6B0E05A
S1130030E0E5F2E002C005900D92A837B107D9F7C8
S113004025D004C1DDCFBB9AC39ABC9AC49ABA988E
S1130050C29AB998C19AC398C498089510BE1FBC97
S113006082E08CBD88EC8EBD84E68BBD80E689BFC2
S113007089B7806489BF8FE880BF789408958BB76F
S113008080628BBFA99AAA9A7894089514BE0FB679
S1130090F894A89581B5886181BD11BC0FBED3DFEA
S11300A0DDDFEDDFA895C8D06DD08FE19EE4019728
S11300B0F1F700C00000A895F6CF1F920F920FB67B
S11300C00F9211241FBC0F900FBE0F901F90189514
S11300D01F920F920FB60F9211240F900FBE0F9024
S11300E01F9018951F920F920FB60F9211240F9024
S11300F00FBE0F901F901895FC018481813009F088
S113010040C020812330E8F5818192810196928359
S1130110818333813130B1F42091600030916100EA
S11301202817390770F512821182138228B381E0EF
S113013090E0008402C0880F991F0A94E2F7822B92
S113014088BB089531111DC0409160005091610039
S113015048175907B0F41282118281E083832F5F1C
S11301602083233011F41482108228B381E090E0BC
S1130170008402C0880F991F0A94E2F780958223B5
S113018088BB08958EE690E0B7DF84E690E0B4DFA4
S11301900895FC0126B330E0018402C0359527950B
S11301A00A94E2F720FD08C081E087838581968167
S11301B0019696838583089517828481882389F024
S11301C0089520916200309163008217930768F4C8
S11301D081E08483838316821582108212821182C5
S11301E0089585819681009761F70895B2990EC0AC
S11301F080916800813051F4E4E6F0E012821182CB
S113020091E0938314821082C498089596B3892F41
S1130210827091FD0FC090917200913061F4EEE60E
S1130220F0E01282118281E0838314821082C398E9
S1130230892F089580E00895D9DF811106C08EE6E4
S113024090E0A7DF84E690E0A4DF0895F894FFCF60
S1130250320014000000000000000000040100004F
S10B026000000000000003028D
S9030000FC
