S015000074726970706C696E675F6176722E737265638E
S11300000EC028C069C053C025C024C023C022C06C
S113001021C058C01FC01EC01DC01CC01BC011245D
S11300201FBECFE5D2E0DEBFCDBF10E0A0E6B0E05A
S1130030E4E1F4E002C005900D92AA37B107D9F7C4
S113004020E0AAE7B0E001C01D92AA37B207E1F7A9
S11300500FD0DEC1D5CFBC9AC49AC498BB9AC39AB8
S1130060C398BA98C29AB998C19AB898C09A089590
S113007014BE0FB6F894A89581B5886181BD11BCF2
S11300800FBEE9DFFDD01FD1A8959EE088E10FB631
S1130090F894A89581BD0FBE91BDE3D06DD08FE0DB
S11300A097E20197F1F700C00000A895F6CF1F92E0
S11300B00F920FB60F9211241FBC0F900FBE0F901A
S11300C01F9018951F920F920FB60F9211240F9044
S11300D00FBE0F901F9018951F920F920FB60F929C
S11300E011240F900FBE0F901F901895FC0184816E
S11300F0813009F040C020812330E8F5818192816C
S113010001969283818333813130B1F42091600070
S1130110309161002817390770F512821182138219
S113012028B381E090E0008402C0880F991F0A94EC
S1130130E2F7822B88BB089531111DC04091600005
S11301405091610048175907B0F41282118281E07E
S113015083832F5F2083233011F41482108228B309
S113016081E090E0008402C0880F991F0A94E2F7AE
S11301708095822388BB08958EE690E0B7DF84E6FD
S113018090E0B4DF0895FC0126B330E0018402C09E
S1130190359527950A94E2F720FD08C081E087830E
S11301A0858196810196968385830895178284813B
S11301B08823D9F00895209162003091630082175A
S11301C0930748F481E08483838316821582108226
S11301D012821182089520916200309163002817E1
S11301E0390768F4168215820895858196812091D5
S11301F078003091790028173907E8F2ECCF089598
S1130200CF93DF93B29911C0C0916800C13069F4F3
S1130210B0D0C398C4982FEF84E39CE02150804071
S11302209040E1F700C0000018C086B3C82FC27028
S113023081FD12C0D0917200D13079F49AD0C49863
S1130240C3982FEF84E39CE0215080409040E1F775
S113025000C00000CD2F01C0C0E08C2FDF91CF91F2
S11302600895CEDF811106C08EE690E08CDF84E62F
S113027090E089DF0895BC0180E090E0A8D0089563
S113028080E090E09FD090936100809360009C0197
S1130290220F331F220F331F820F931F64E670E077
S11302A07DD0CB01880F991F880F991F680F791F84
S11302B062957295707F7627607F762770936300CE
S11302C060936200089586B3982F917080FF45C0B3
S11302D040C0B09940C02FE738E341E0215030409E
S11302E04040E1F700C00000815099F7B09940C048
S11302F066B3647046B34270E0E080E090E070E082
S1130300F1E050E026B3247030E06217730731F453
S113031026B3227030E04217530741F00196AFE054
S1130320B7E21197F1F700C0000002C0E13039F4E0
S113033026B3247030E06217730739F0EF2F26B329
S1130340227030E042175307E9F695DF99DF81E028
S1130350089580E00895892F0895BFE728E331E0E8
S1130360B15020403040E1F700C0000089E0B1CF37
S11303700895EEE6F0E01282118213821482108254
S1130380178216821582E4E6F0E01282118213824B
S1130390148210821782168215820895AA1BBB1B31
S11303A051E107C0AA1FBB1FA617B70710F0A61B71
S11303B0B70B881F991F5A95A9F780959095BC0192
S11303C0CD010895A8E1B0E042E050E005C012D0AC
S11303D0272F11C0DC01CB01FC01E199FECF06C03F
S11303E0FFBBEEBBE09A31960DB20D9241505040E6
S11303F0B8F70895262FE199FECF1CBA9FBB8EBB98
S11304002DBB0FB6F894E29AE19A0FBE01960895B7
S1070410F894FFCF8A
S113041450003C0000000000000000000301000044
S10D042400000000000004021000B4
S9030000FC
