S015000074726970706C696E675F6176722E737265638E
S11300000EC020C061C04BC01DC01CC01BC01AC0A4
S113001019C050C017C016C015C014C013C0112495
S11300201FBECFE5D2E0DEBFCDBF10E0A0E6B0E05A
S1130030E4EEF2E002C005900D92A837B107D9F7BB
S11300400FD04EC1DDCFBB9AC39AC398BC9AC49A51
S1130050C498BA98C29AB998C19AB898C09A08959F
S113006014BE0FB6F894A89581B5886181BD11BC02
S11300700FBEE9DF07D1E1D0A8959EE088E10FB675
S1130080F894A89581BD0FBE91BDC8D06DD08FE006
S113009097E20197F1F700C00000A895F6CF1F92F0
S11300A00F920FB60F9211241FBC0F900FBE0F902A
S11300B01F9018951F920F920FB60F9211240F9054
S11300C00FBE0F901F9018951F920F920FB60F92AC
S11300D011240F900FBE0F901F901895FC0184817E
S11300E0813009F040C020812330E8F5818192817C
S11300F001969283818333813130B1F42091600081
S1130100309161002817390770F512821182138229
S113011028B381E090E0008402C0880F991F0A94FC
S1130120E2F7822B88BB089531111DC04091600015
S11301305091610048175907B0F41282118281E08E
S113014083832F5F2083233011F41482108228B319
S113015081E090E0008402C0880F991F0A94E2F7BE
S11301608095822388BB08958EE690E0B7DF84E60D
S113017090E0B4DF0895FC0126B330E0018402C0AE
S1130180359527950A94E2F720FD08C081E087831E
S1130190858196810196968385830895178284814B
S11301A0882389F0089520916200309163008217BA
S11301B0930768F481E08483838316821582108216
S11301C012821182089585819681009761F70895BE
S11301D0B2990EC080916800813051F4E4E6F0E0F9
S11301E01282118291E0938314821082C49808953C
S11301F096B3892F827091FD0FC090917200913057
S113020061F4EEE6F0E01282118281E083831482CD
S11302101082C398892F089580E00895D9DF811151
S113022006C08EE690E0A7DF84E690E0A4DF0895A0
S1130230BC0180E090E033D00895B09922C046B369
S1130240447060E080E090E050E071E001C0672F0E
S113025026B3247030E04217530741F00196EFE0D3
S1130260F7E23197F1F700C0000002C0613081F776
S113027026B3247030E04217530749F7D9DFA89515
S1130280FECF089580E090E005D0909361008093C4
S113029060000895A8E1B0E042E050E005C012D04B
S11302A0272F11C0DC01CB01FC01E199FECF06C070
S11302B0FFBBEEBBE09A31960DB20D924150504017
S11302C0B8F70895262FE199FECF1CBA9FBB8EBBC9
S11302D02DBB0FB6F894E29AE19A0FBE01960895E9
S10702E0F894FFCFBC
S11302E46400280000000000000000000401000075
S10B02F40000000000000302F9
S9030000FC
